{
  "contractName": "ChainList",
  "abi": [
    {
      "constant": true,
      "inputs": [
        {
          "name": "",
          "type": "uint256"
        }
      ],
      "name": "articles",
      "outputs": [
        {
          "name": "id",
          "type": "uint256"
        },
        {
          "name": "seller",
          "type": "address"
        },
        {
          "name": "buyer",
          "type": "address"
        },
        {
          "name": "name",
          "type": "string"
        },
        {
          "name": "description",
          "type": "string"
        },
        {
          "name": "price",
          "type": "uint256"
        }
      ],
      "payable": false,
      "stateMutability": "view",
      "type": "function"
    },
    {
      "anonymous": false,
      "inputs": [
        {
          "indexed": true,
          "name": "_id",
          "type": "uint256"
        },
        {
          "indexed": true,
          "name": "_seller",
          "type": "address"
        },
        {
          "indexed": false,
          "name": "_name",
          "type": "string"
        },
        {
          "indexed": false,
          "name": "_price",
          "type": "uint256"
        }
      ],
      "name": "sellArticleLog",
      "type": "event"
    },
    {
      "anonymous": false,
      "inputs": [
        {
          "indexed": true,
          "name": "_id",
          "type": "uint256"
        },
        {
          "indexed": true,
          "name": "_seller",
          "type": "address"
        },
        {
          "indexed": true,
          "name": "_buyer",
          "type": "address"
        },
        {
          "indexed": false,
          "name": "_name",
          "type": "string"
        },
        {
          "indexed": false,
          "name": "_price",
          "type": "uint256"
        }
      ],
      "name": "buyArticleLog",
      "type": "event"
    },
    {
      "constant": false,
      "inputs": [],
      "name": "kill",
      "outputs": [],
      "payable": false,
      "stateMutability": "nonpayable",
      "type": "function"
    },
    {
      "constant": false,
      "inputs": [
        {
          "name": "_name",
          "type": "string"
        },
        {
          "name": "_description",
          "type": "string"
        },
        {
          "name": "_price",
          "type": "uint256"
        }
      ],
      "name": "sellArticle",
      "outputs": [],
      "payable": false,
      "stateMutability": "nonpayable",
      "type": "function"
    },
    {
      "constant": true,
      "inputs": [],
      "name": "getNumberOfArticles",
      "outputs": [
        {
          "name": "",
          "type": "uint256"
        }
      ],
      "payable": false,
      "stateMutability": "view",
      "type": "function"
    },
    {
      "constant": true,
      "inputs": [],
      "name": "getArticleForSale",
      "outputs": [
        {
          "name": "",
          "type": "uint256[]"
        }
      ],
      "payable": false,
      "stateMutability": "view",
      "type": "function"
    },
    {
      "constant": false,
      "inputs": [
        {
          "name": "_id",
          "type": "uint256"
        }
      ],
      "name": "buyArticle",
      "outputs": [],
      "payable": true,
      "stateMutability": "payable",
      "type": "function"
    }
  ],
  "bytecode": "0x6080604052336000806101000a81548173ffffffffffffffffffffffffffffffffffffffff021916908373ffffffffffffffffffffffffffffffffffffffff160217905550610d80806100536000396000f300608060405260043610610078576000357c0100000000000000000000000000000000000000000000000000000000900463ffffffff1680631cc4baa81461007d57806341c0e1b51461009d57806389da85d3146100b4578063d2609515146100df578063e7cfdcca14610198578063edcfafe614610204575b600080fd5b61009b6004803603810190808035906020019092919050505061038a565b005b3480156100a957600080fd5b506100b26106c3565b005b3480156100c057600080fd5b506100c9610758565b6040518082815260200191505060405180910390f35b3480156100eb57600080fd5b50610196600480360381019080803590602001908201803590602001908080601f0160208091040260200160405190810160405280939291908181526020018383808284378201915050505050509192919290803590602001908201803590602001908080601f016020809104026020016040519081016040528093929190818152602001838380828437820191505050505050919291929080359060200190929190505050610762565b005b3480156101a457600080fd5b506101ad610988565b6040518080602001828103825283818151815260200191508051906020019060200280838360005b838110156101f05780820151818401526020810190506101d5565b505050509050019250505060405180910390f35b34801561021057600080fd5b5061022f60048036038101908080359060200190929190505050610b03565b604051808781526020018673ffffffffffffffffffffffffffffffffffffffff1673ffffffffffffffffffffffffffffffffffffffff1681526020018573ffffffffffffffffffffffffffffffffffffffff1673ffffffffffffffffffffffffffffffffffffffff1681526020018060200180602001848152602001838103835286818151815260200191508051906020019080838360005b838110156102e35780820151818401526020810190506102c8565b50505050905090810190601f1680156103105780820380516001836020036101000a031916815260200191505b50838103825285818151815260200191508051906020019080838360005b8381101561034957808201518184015260208101905061032e565b50505050905090810190601f1680156103765780820380516001836020036101000a031916815260200191505b509850505050505050505060405180910390f35b60008060025411151561039c57600080fd5b6000821180156103ae57506002548211155b15156103b957600080fd5b60016000838152602001908152602001600020905060008160010160009054906101000a900473ffffffffffffffffffffffffffffffffffffffff1673ffffffffffffffffffffffffffffffffffffffff161415151561041857600080fd5b60008160020160009054906101000a900473ffffffffffffffffffffffffffffffffffffffff1673ffffffffffffffffffffffffffffffffffffffff1614151561046157600080fd5b8060010160009054906101000a900473ffffffffffffffffffffffffffffffffffffffff1673ffffffffffffffffffffffffffffffffffffffff163373ffffffffffffffffffffffffffffffffffffffff16141515156104c057600080fd5b8060050154341415156104d257600080fd5b338160020160006101000a81548173ffffffffffffffffffffffffffffffffffffffff021916908373ffffffffffffffffffffffffffffffffffffffff1602179055508060010160009054906101000a900473ffffffffffffffffffffffffffffffffffffffff1673ffffffffffffffffffffffffffffffffffffffff166108fc349081150290604051600060405180830381858888f1935050505015801561057f573d6000803e3d6000fd5b508060020160009054906101000a900473ffffffffffffffffffffffffffffffffffffffff1673ffffffffffffffffffffffffffffffffffffffff168160010160009054906101000a900473ffffffffffffffffffffffffffffffffffffffff1673ffffffffffffffffffffffffffffffffffffffff16837fa12c64f9d62e488bb40af3ac5ca920c2dab681840f195d9f45e11720120923ad84600301856005015460405180806020018381526020018281038252848181546001816001161561010002031660029004815260200191508054600181600116156101000203166002900480156106b05780601f10610685576101008083540402835291602001916106b0565b820191906000526020600020905b81548152906001019060200180831161069357829003601f168201915b5050935050505060405180910390a45050565b6000809054906101000a900473ffffffffffffffffffffffffffffffffffffffff1673ffffffffffffffffffffffffffffffffffffffff163373ffffffffffffffffffffffffffffffffffffffff1614151561071e57600080fd5b6000809054906101000a900473ffffffffffffffffffffffffffffffffffffffff1673ffffffffffffffffffffffffffffffffffffffff16ff5b6000600254905090565b60026000815480929190600101919050555060c06040519081016040528060025481526020013373ffffffffffffffffffffffffffffffffffffffff168152602001600073ffffffffffffffffffffffffffffffffffffffff168152602001848152602001838152602001828152506001600060025481526020019081526020016000206000820151816000015560208201518160010160006101000a81548173ffffffffffffffffffffffffffffffffffffffff021916908373ffffffffffffffffffffffffffffffffffffffff16021790555060408201518160020160006101000a81548173ffffffffffffffffffffffffffffffffffffffff021916908373ffffffffffffffffffffffffffffffffffffffff160217905550606082015181600301908051906020019061089a929190610caf565b5060808201518160040190805190602001906108b7929190610caf565b5060a082015181600501559050503373ffffffffffffffffffffffffffffffffffffffff166002547fec7d4332c1ebb6b6991abf3c7336b31c4861c179c2f42f7b70dfe74ecabf8ad385846040518080602001838152602001828103825284818151815260200191508051906020019080838360005b8381101561094857808201518184015260208101905061092d565b50505050905090810190601f1680156109755780820380516001836020036101000a031916815260200191505b50935050505060405180910390a3505050565b606080600080606060006002546040519080825280602002602001820160405280156109c35781602001602082028038833980820191505090505b50945060009350600192505b60025483111515610a785760006001600085815260200190815260200160002060020160009054906101000a900473ffffffffffffffffffffffffffffffffffffffff1673ffffffffffffffffffffffffffffffffffffffff161415610a6b5760016000848152602001908152602001600020600001548585815181101515610a5457fe5b906020019060200201818152505083806001019450505b82806001019350506109cf565b83604051908082528060200260200182016040528015610aa75781602001602082028038833980820191505090505b509150600090505b83811015610af8578481815181101515610ac557fe5b906020019060200201518282815181101515610add57fe5b90602001906020020181815250508080600101915050610aaf565b819550505050505090565b60016020528060005260406000206000915090508060000154908060010160009054906101000a900473ffffffffffffffffffffffffffffffffffffffff16908060020160009054906101000a900473ffffffffffffffffffffffffffffffffffffffff1690806003018054600181600116156101000203166002900480601f016020809104026020016040519081016040528092919081815260200182805460018160011615610100020316600290048015610c015780601f10610bd657610100808354040283529160200191610c01565b820191906000526020600020905b815481529060010190602001808311610be457829003601f168201915b505050505090806004018054600181600116156101000203166002900480601f016020809104026020016040519081016040528092919081815260200182805460018160011615610100020316600290048015610c9f5780601f10610c7457610100808354040283529160200191610c9f565b820191906000526020600020905b815481529060010190602001808311610c8257829003601f168201915b5050505050908060050154905086565b828054600181600116156101000203166002900490600052602060002090601f016020900481019282601f10610cf057805160ff1916838001178555610d1e565b82800160010185558215610d1e579182015b82811115610d1d578251825591602001919060010190610d02565b5b509050610d2b9190610d2f565b5090565b610d5191905b80821115610d4d576000816000905550600101610d35565b5090565b905600a165627a7a7230582019e06d13791ffb14da62e07138957c7b80abd40ec7adc2e09bd75d8005cfda9d0029",
  "source": "pragma solidity ^0.4.18;\n\nimport \"./Ownable.sol\";\n\ncontract ChainList is Ownable {\n  // state variables\n  struct Article{\n    uint id;\n    address seller;\n    address buyer;\n    string name;\n    string description;\n    uint256 price;\n  }\n\n  mapping (uint => Article) public articles;\n  uint articleCounter;\n\n\n\n  // events\n  event sellArticleLog(\n    uint indexed _id,\n    address indexed _seller,\n    string _name,\n    uint256 _price\n  );\n  event buyArticleLog(\n    uint indexed _id,\n    address indexed _seller,\n    address indexed _buyer,\n    string _name,\n    uint256 _price\n  );\n\n  //deactivate contract\n  function kill() public onlyOwner{\n    selfdestruct(owner);\n  }\n\n  // sell an article\n  function sellArticle(string _name, string _description, uint256 _price) public {\n    articleCounter++;\n\n    articles[articleCounter] = Article(\n      articleCounter,\n      msg.sender,\n      0x0,\n      _name,\n      _description,\n      _price\n    );\n\n    sellArticleLog(articleCounter, msg.sender, _name, _price);\n  }\n\n\n  function getNumberOfArticles() public view returns(uint){\n    return articleCounter;\n  }\n\n  function getArticleForSale() public view returns(uint[]){\n    uint[] memory articleIds = new uint[](articleCounter);\n\n    uint numberOfArticlesForSale = 0;\n\n    for(uint i = 1; i<= articleCounter; i++){\n      if(articles[i].buyer == 0x0){\n        articleIds[numberOfArticlesForSale] = articles[i].id;\n        numberOfArticlesForSale++;\n      }\n    }\n\n    uint[] memory forSale = new uint[](numberOfArticlesForSale);\n    for(uint j = 0; j<numberOfArticlesForSale; j++){\n      forSale[j] = articleIds[j];\n    }\n\n    return forSale;\n  }\n\n  // buy an article\n  function buyArticle(uint _id) payable public {\n\n    require(articleCounter>0);\n    require(_id > 0 && _id <= articleCounter);\n\n    Article storage article = articles[_id];\n    // we check whether there is an article for sale\n    require(article.seller != 0x0);\n\n    // we check that the article has not been sold yet\n    require(article.buyer == 0X0);\n\n    // we don't allow the seller to buy his own article\n    require(msg.sender != article.seller);\n\n    // we check that the value sent corresponds to the price of the article\n    require(msg.value == article.price);\n\n    // keep buyer's information\n    article.buyer = msg.sender;\n\n    // the buyer can pay the seller\n    article.seller.transfer(msg.value);\n\n    // trigger the event\n    buyArticleLog(_id, article.seller, article.buyer, article.name, article.price);\n  }\n}\n",
  "sourcePath": "/Users/silverzhang/ChainSkills/Training/chainlist/contracts/ChainList.sol",
  "compiler": {
    "name": "solc",
    "version": "0.4.24+commit.e67f0147.Emscripten.clang"
  },
  "schemaVersion": "2.0.1",
  "updatedAt": "2018-07-21T04:29:41.006Z"
}